{"abi":[{"type":"constructor","inputs":[{"name":"inputBox","type":"address","internalType":"contract IInputBox"}],"stateMutability":"nonpayable"},{"type":"function","name":"depositERC721Token","inputs":[{"name":"token","type":"address","internalType":"contract IERC721"},{"name":"appContract","type":"address","internalType":"address"},{"name":"tokenId","type":"uint256","internalType":"uint256"},{"name":"baseLayerData","type":"bytes","internalType":"bytes"},{"name":"execLayerData","type":"bytes","internalType":"bytes"}],"outputs":[],"stateMutability":"nonpayable"},{"type":"function","name":"getInputBox","inputs":[],"outputs":[{"name":"","type":"address","internalType":"contract IInputBox"}],"stateMutability":"view"}],"bytecode":{"object":"0x60a03461007157601f61042338819003918201601f19168301916001600160401b038311848410176100755780849260209460405283398101031261007157516001600160a01b038116810361007157608052604051610399908161008a82396080518181816101dd015261028f0152f35b5f80fd5b634e487b7160e01b5f52604160045260245ffdfe6080604081815260049081361015610015575f80fd5b5f925f3560e01c908162aace9a1461027d57506328911e8314610036575f80fd5b346102795760a0366003190112610279578135906001600160a01b03808316808403610279576024359180831680930361027957604435926064359667ffffffffffffffff978881116102795761009090369083016102be565b9490956084358a8111610279576100aa90369085016102be565b92909a813b15610279575f888a938883898f6100f3905198899687958694635c46a7ef60e11b8652339086015260248501528b6044850152608060648501526084840191610322565b03925af1801561026f57610243575b5050908a92918851968760209c8d9a8b8301938d8552606084019061012692610322565b601f1983820381018e8501529561013c92610322565b03838101895261014c90896102ec565b89519788928a84019c6bffffffffffffffffffffffff199060601b168d523360601b603485015260488401525190816068840161018892610342565b81010360488101875260680161019e90876102ec565b875198899687958694631789cd6360e01b8652850152896024850152519081604485015281606485016101d092610342565b601f0116810103606401927f0000000000000000000000000000000000000000000000000000000000000000165af190811561023a575061020f578280f35b813d8311610233575b61022281836102ec565b81010312610230575f808280f35b80fd5b503d610218565b513d85823e3d90fd5b90809294939c501161025c5787525f9990915f80610102565b604182634e487b7160e01b5f525260245ffd5b8a513d5f823e3d90fd5b5f80fd5b34610279575f366003190112610279577f00000000000000000000000000000000000000000000000000000000000000006001600160a01b03168152602090f35b9181601f840112156102795782359167ffffffffffffffff8311610279576020838186019501011161027957565b90601f8019910116810190811067ffffffffffffffff82111761030e57604052565b634e487b7160e01b5f52604160045260245ffd5b908060209392818452848401375f828201840152601f01601f1916010190565b5f5b8381106103535750505f910152565b818101518382015260200161034456fea26469706673582212206024e33fcaf720620a51e5d03555586de945b1a528161c943ab00c85d67735b164736f6c63430008170033","linkReferences":{}},"methodIdentifiers":{"depositERC721Token(address,address,uint256,bytes,bytes)":"28911e83","getInputBox()":"00aace9a"},"id":53}