{"abi":[{"type":"function","name":"calculateAuthorityAddress","inputs":[{"name":"authorityOwner","type":"address","internalType":"address"},{"name":"epochLength","type":"uint256","internalType":"uint256"},{"name":"salt","type":"bytes32","internalType":"bytes32"}],"outputs":[{"name":"","type":"address","internalType":"address"}],"stateMutability":"view"},{"type":"function","name":"newAuthority","inputs":[{"name":"authorityOwner","type":"address","internalType":"address"},{"name":"epochLength","type":"uint256","internalType":"uint256"}],"outputs":[{"name":"","type":"address","internalType":"contract IAuthority"}],"stateMutability":"nonpayable"},{"type":"function","name":"newAuthority","inputs":[{"name":"authorityOwner","type":"address","internalType":"address"},{"name":"epochLength","type":"uint256","internalType":"uint256"},{"name":"salt","type":"bytes32","internalType":"bytes32"}],"outputs":[{"name":"","type":"address","internalType":"contract IAuthority"}],"stateMutability":"nonpayable"},{"type":"event","name":"AuthorityCreated","inputs":[{"name":"authority","type":"address","indexed":false,"internalType":"contract IAuthority"}],"anonymous":false}],"bytecode":{"object":"0x60808060405234610016576107bc908161001b8239f35b5f80fdfe60806040908082526004361015610014575f80fd5b5f3560e01c9081631442f7bb1461019d5750806393d7217c146100f95763ec9926681461003f575f80fd5b346100f55761004d3661025b565b918351916104b6908184019284841067ffffffffffffffff8511176100e1578493610092936102d186396001600160a01b039091168152602081019190915260400190565b03905ff580156100d7579060209160018060a01b0316907fdca1fad70bee4ba7a4e17a1c6e99e657d2251af7a279124758bc01588abe2d2f838251848152a151908152f35b50513d5f823e3d90fd5b634e487b7160e01b5f52604160045260245ffd5b5f80fd5b50346100f557806003193601126100f5576001600160a01b039060043582811681036100f5578151906104b680830183811067ffffffffffffffff8211176100e157839261015f926102d185396001600160a01b03168152602435602082015260400190565b03905ff09182156100d75760209216907fdca1fad70bee4ba7a4e17a1c6e99e657d2251af7a279124758bc01588abe2d2f838251848152a151908152f35b82346100f557600b61022361022f936101b53661025b565b939196906104b6976020986101cc8a820187610285565b8086526102d18a87013987516001600160a01b039091168982019081526020810192909252908190604001039061020b601f1992838101835282610285565b875193849161021d8b840180986102a7565b906102a7565b03908101835282610285565b5190209083519184830152848201523081520160ff81536055902090516001600160a01b039091168152f35b60609060031901126100f5576004356001600160a01b03811681036100f557906024359060443590565b90601f8019910116810190811067ffffffffffffffff8211176100e157604052565b908151915f5b8381106102bd575050015f815290565b80602080928401015181850152016102ad56fe60a03461011557601f6104b638819003918201601f19168301916001600160401b038311848410176101195780849260409485528339810103126101155780516001600160a01b039182821691829003610115576020015180156100d05760805280156100b857600180546001600160a01b03198116831790915560405192167f8be0079c531659141344cd1fd0a4f28419497f9722a3daafe3b4186f6b6457e05f80a3610388908161012e8239608051816101550152f35b604051631e4fbdf760e01b81525f6004820152602490fd5b60405162461bcd60e51b815260206004820152601d60248201527f65706f6368206c656e677468206d757374206e6f74206265207a65726f0000006044820152606490fd5b5f80fd5b634e487b7160e01b5f52604160045260245ffdfe60806040908082526004361015610014575f80fd5b5f3560e01c90816301ffc9a7146102ab575080636470af00146101fb578063715018a6146101a05780638da5cb5b14610178578063cfe8a73b1461013e578063e5cc8664146100fa5763f2fde38b1461006b575f80fd5b346100f65760203660031901126100f657610084610310565b61008c610326565b6001600160a01b039081169182156100e05750600154826bffffffffffffffffffffffff60a01b821617600155167f8be0079c531659141344cd1fd0a4f28419497f9722a3daafe3b4186f6b6457e05f80a3005b51631e4fbdf760e01b81525f6004820152602490fd5b5f80fd5b50346100f657806003193601126100f6576020906001600160a01b0361011e610310565b165f525f8252805f206024355f52825260ff815f20541690519015158152f35b50346100f6575f3660031901126100f657602090517f00000000000000000000000000000000000000000000000000000000000000008152f35b50346100f6575f3660031901126100f65760015490516001600160a01b039091168152602090f35b346100f6575f3660031901126100f6576101b8610326565b600180546001600160a01b031981169091555f906001600160a01b03167f8be0079c531659141344cd1fd0a4f28419497f9722a3daafe3b4186f6b6457e08280a3005b50346100f65760603660031901126100f6577f0f2cd00a405c0d1a66050307b6722c4788db6ed57aa3589a5c38da535cc3ce63610236610310565b9160243560443593610246610326565b60018060a01b0316938483518381528260208201527ff4ff953641f10e17dd93c0bc51334cb1f711fdcb4e37992021a5973f7a958f09853392a3845f525f602052825f20815f52602052825f20600160ff1982541617905582519182526020820152a2005b346100f65760203660031901126100f6576004359063ffffffff60e01b82168092036100f65781602092159081156102e5575b5015158152f35b63ab98083b60e01b8114915081156102ff575b50836102de565b6301ffc9a760e01b149050836102f8565b600435906001600160a01b03821682036100f657565b6001546001600160a01b0316330361033a57565b60405163118cdaa760e01b8152336004820152602490fdfea26469706673582212200beb18faede842ce557fa6a38a83bc4f3079260eadd99e093d058585a072d8ee64736f6c63430008170033a26469706673582212202f87f20ffd5e14021a7c5aefae41fcedc099f612d30338b5fc912ebf4609000b64736f6c63430008170033","linkReferences":{}},"methodIdentifiers":{"calculateAuthorityAddress(address,uint256,bytes32)":"1442f7bb","newAuthority(address,uint256)":"93d7217c","newAuthority(address,uint256,bytes32)":"ec992668"},"id":30}