{"abi":[{"type":"constructor","inputs":[{"name":"validators","type":"address[]","internalType":"address[]"},{"name":"epochLength","type":"uint256","internalType":"uint256"}],"stateMutability":"nonpayable"},{"type":"function","name":"getEpochLength","inputs":[],"outputs":[{"name":"","type":"uint256","internalType":"uint256"}],"stateMutability":"view"},{"type":"function","name":"isOutputsMerkleRootValid","inputs":[{"name":"appContract","type":"address","internalType":"address"},{"name":"outputsMerkleRoot","type":"bytes32","internalType":"bytes32"}],"outputs":[{"name":"","type":"bool","internalType":"bool"}],"stateMutability":"view"},{"type":"function","name":"isValidatorInFavorOf","inputs":[{"name":"appContract","type":"address","internalType":"address"},{"name":"lastProcessedBlockNumber","type":"uint256","internalType":"uint256"},{"name":"outputsMerkleRoot","type":"bytes32","internalType":"bytes32"},{"name":"id","type":"uint256","internalType":"uint256"}],"outputs":[{"name":"","type":"bool","internalType":"bool"}],"stateMutability":"view"},{"type":"function","name":"numOfValidators","inputs":[],"outputs":[{"name":"","type":"uint256","internalType":"uint256"}],"stateMutability":"view"},{"type":"function","name":"numOfValidatorsInFavorOf","inputs":[{"name":"appContract","type":"address","internalType":"address"},{"name":"lastProcessedBlockNumber","type":"uint256","internalType":"uint256"},{"name":"outputsMerkleRoot","type":"bytes32","internalType":"bytes32"}],"outputs":[{"name":"","type":"uint256","internalType":"uint256"}],"stateMutability":"view"},{"type":"function","name":"submitClaim","inputs":[{"name":"appContract","type":"address","internalType":"address"},{"name":"lastProcessedBlockNumber","type":"uint256","internalType":"uint256"},{"name":"outputsMerkleRoot","type":"bytes32","internalType":"bytes32"}],"outputs":[],"stateMutability":"nonpayable"},{"type":"function","name":"supportsInterface","inputs":[{"name":"interfaceId","type":"bytes4","internalType":"bytes4"}],"outputs":[{"name":"","type":"bool","internalType":"bool"}],"stateMutability":"view"},{"type":"function","name":"validatorById","inputs":[{"name":"id","type":"uint256","internalType":"uint256"}],"outputs":[{"name":"","type":"address","internalType":"address"}],"stateMutability":"view"},{"type":"function","name":"validatorId","inputs":[{"name":"validator","type":"address","internalType":"address"}],"outputs":[{"name":"","type":"uint256","internalType":"uint256"}],"stateMutability":"view"},{"type":"event","name":"ClaimAccepted","inputs":[{"name":"appContract","type":"address","indexed":true,"internalType":"address"},{"name":"lastProcessedBlockNumber","type":"uint256","indexed":false,"internalType":"uint256"},{"name":"outputsMerkleRoot","type":"bytes32","indexed":false,"internalType":"bytes32"}],"anonymous":false},{"type":"event","name":"ClaimSubmitted","inputs":[{"name":"submitter","type":"address","indexed":true,"internalType":"address"},{"name":"appContract","type":"address","indexed":true,"internalType":"address"},{"name":"lastProcessedBlockNumber","type":"uint256","indexed":false,"internalType":"uint256"},{"name":"outputsMerkleRoot","type":"bytes32","indexed":false,"internalType":"bytes32"}],"anonymous":false}],"bytecode":{"object":"0x604060c08152346101b0576106e88038038061001a816101c8565b928339810182828203126101b05781516001600160401b0393908481116101b057830182601f820112156101b05780519360209585116101b4576005938560051b87806100688184016101c8565b8099815201918501019182116101b05790878094015b81811061018a5750505001518015610146576080525f915f5b845181101561011c5760018060a01b038682841b8701015116805f52600190818852845f2054156100cd575b5050600101610097565b909491905f19831461010857856001930195815f52885285855f2055855f5260028852845f2090838060a01b0319825416179055905f6100c3565b634e487b7160e01b5f52601160045260245ffd5b828460a052516104fa90816101ee82396080518160e1015260a05181818161021c015261038f0152f35b815162461bcd60e51b815260048101869052601d60248201527f65706f6368206c656e677468206d757374206e6f74206265207a65726f0000006044820152606490fd5b8051945090916001600160a01b03851685036101b057938452879384019190840161007e565b5f80fd5b634e487b7160e01b5f52604160045260245ffd5b6040519190601f01601f191682016001600160401b038111838210176101b45760405256fe6080604090808252600480361015610015575f80fd5b5f3560e01c91826301ffc9a714610418575081630a6f1fe8146103e15781631c45396a146103b25781631e526e45146103785781634b84231c146102ff5781636470af001461014c575080637051bfd514610104578063cfe8a73b146100ca5763e5cc866414610083575f80fd5b346100c657806003193601126100c6576020906001600160a01b036100a6610484565b165f525f8252805f206024355f52825260ff815f20541690519015158152f35b5f80fd5b50346100c6575f3660031901126100c657602090517f00000000000000000000000000000000000000000000000000000000000000008152f35b50346100c6576020906101446101193661049a565b9160018060a01b03165f52600360205260405f20905f5260205260405f20905f5260205260405f2090565b549051908152f35b9050346100c65761015c3661049a565b939193335f52600193602090858252845f20549687156102bd5760018060a01b03169687865186815285858201527ff4ff953641f10e17dd93c0bc51334cb1f711fdcb4e37992021a5973f7a958f09883392a3875f5260038352855f20855f528352855f20845f528352855f20908782016101ee828260019160ff918160081c5f52602052161b60405f205416151590565b156101f557005b8160081c5f5284528760ff885f2092161b815417905580545f1981146102aa5787018091557f0000000000000000000000000000000000000000000000000000000000000000871c87019182881161029757501461024f57005b7f0f2cd00a405c0d1a66050307b6722c4788db6ed57aa3589a5c38da535cc3ce6394865f525f8252845f20835f528252845f209060ff198254161790558351928352820152a2005b601190634e487b7160e01b5f525260245ffd5b601183634e487b7160e01b5f525260245ffd5b5060649185519162461bcd60e51b8352820152601f60248201527f51756f72756d3a2063616c6c6572206973206e6f742076616c696461746f72006044820152fd5b82346100c65760803660031901126100c65760209061036f61031f610484565b6001600160a01b03165f90815260036020908152604080832060243584528252808320604435845290915290206064359060010160019160ff918160081c5f52602052161b60405f205416151590565b90519015158152f35b82346100c6575f3660031901126100c657602090517f00000000000000000000000000000000000000000000000000000000000000008152f35b82346100c65760203660031901126100c657602091355f526002825260018060a01b03815f2054169051908152f35b82346100c65760203660031901126100c6576020906001600160a01b03610406610484565b165f5260018252805f20549051908152f35b90346100c65760203660031901126100c657359063ffffffff60e01b82168092036100c6576020916319d6ea0760e11b8114908115610459575b5015158152f35b63ab98083b60e01b811491508115610473575b5083610452565b6301ffc9a760e01b1490508361046c565b600435906001600160a01b03821682036100c657565b60609060031901126100c6576004356001600160a01b03811681036100c65790602435906044359056fea26469706673582212206a12e17c1fb1e465c6044849e348692ed74a92048d2a089baa2f73e567b571b064736f6c63430008170033","linkReferences":{}},"methodIdentifiers":{"getEpochLength()":"cfe8a73b","isOutputsMerkleRootValid(address,bytes32)":"e5cc8664","isValidatorInFavorOf(address,uint256,bytes32,uint256)":"4b84231c","numOfValidators()":"1e526e45","numOfValidatorsInFavorOf(address,uint256,bytes32)":"7051bfd5","submitClaim(address,uint256,bytes32)":"6470af00","supportsInterface(bytes4)":"01ffc9a7","validatorById(uint256)":"1c45396a","validatorId(address)":"0a6f1fe8"},"id":35}