{"abi":[{"type":"constructor","inputs":[{"name":"inputBox","type":"address","internalType":"contract IInputBox"}],"stateMutability":"nonpayable"},{"type":"function","name":"depositEther","inputs":[{"name":"appContract","type":"address","internalType":"address"},{"name":"execLayerData","type":"bytes","internalType":"bytes"}],"outputs":[],"stateMutability":"payable"},{"type":"function","name":"getInputBox","inputs":[],"outputs":[{"name":"","type":"address","internalType":"contract IInputBox"}],"stateMutability":"view"},{"type":"error","name":"EtherTransferFailed","inputs":[]}],"bytecode":{"object":"0x60a03461007157601f61032a38819003918201601f19168301916001600160401b038311848410176100755780849260209460405283398101031261007157516001600160a01b0381168103610071576080526040516102a0908161008a823960805181818161015101526102050152f35b5f80fd5b634e487b7160e01b5f52604160045260245ffdfe608060409080825260049081361015610016575f80fd5b5f3560e01c908162aace9a146101f3575063938c054f14610035575f80fd5b8160031936011261019e576001600160a01b038135818116939184820361019e576024359167ffffffffffffffff80841161019e573660238501121561019e57838601359181831161019e57366024848701011161019e575f8080809334905af1903d156101ed573d9081116101da578551906100bc601f8201601f191660200183610234565b81525f60203d92013e5b156101ca579060249594916101086054865183819460209b8c993360601b8b860152346034860152018484013781015f83820152036034810184520182610234565b8451958693631789cd6360e01b8552840152846024840152805190816044850152845f5b8381106101b2575050505f606484838383839684010152601f801991011681010301927f0000000000000000000000000000000000000000000000000000000000000000165af19081156101a9575061018157005b813d83116101a2575b6101948183610234565b8101031261019e57005b5f80fd5b503d61018a565b513d5f823e3d90fd5b8281018201518982016064015288955086910161012c565b50505051630ce8f45160e31b8152fd5b604187634e487b7160e01b5f525260245ffd5b506100c6565b3461019e575f36600319011261019e577f00000000000000000000000000000000000000000000000000000000000000006001600160a01b03168152602090f35b90601f8019910116810190811067ffffffffffffffff82111761025657604052565b634e487b7160e01b5f52604160045260245ffdfea2646970667358221220f5d184f99b9a64bcaf83a82fbfa80eb61c8af4e334899132a6597198f100d2d364736f6c63430008170033","linkReferences":{}},"methodIdentifiers":{"depositEther(address,bytes)":"938c054f","getInputBox()":"00aace9a"},"id":54}