{"abi":[{"type":"constructor","inputs":[{"name":"authorityFactory","type":"address","internalType":"contract IAuthorityFactory"},{"name":"applicationFactory","type":"address","internalType":"contract IApplicationFactory"}],"stateMutability":"nonpayable"},{"type":"function","name":"calculateAddresses","inputs":[{"name":"authorityOwner","type":"address","internalType":"address"},{"name":"epochLength","type":"uint256","internalType":"uint256"},{"name":"appOwner","type":"address","internalType":"address"},{"name":"templateHash","type":"bytes32","internalType":"bytes32"},{"name":"dataAvailability","type":"bytes","internalType":"bytes"},{"name":"salt","type":"bytes32","internalType":"bytes32"}],"outputs":[{"name":"application","type":"address","internalType":"address"},{"name":"authority","type":"address","internalType":"address"}],"stateMutability":"view"},{"type":"function","name":"deployContracts","inputs":[{"name":"authorityOwner","type":"address","internalType":"address"},{"name":"epochLength","type":"uint256","internalType":"uint256"},{"name":"appOwner","type":"address","internalType":"address"},{"name":"templateHash","type":"bytes32","internalType":"bytes32"},{"name":"dataAvailability","type":"bytes","internalType":"bytes"},{"name":"salt","type":"bytes32","internalType":"bytes32"}],"outputs":[{"name":"application","type":"address","internalType":"contract IApplication"},{"name":"authority","type":"address","internalType":"contract IAuthority"}],"stateMutability":"nonpayable"},{"type":"function","name":"getApplicationFactory","inputs":[],"outputs":[{"name":"","type":"address","internalType":"contract IApplicationFactory"}],"stateMutability":"view"},{"type":"function","name":"getAuthorityFactory","inputs":[],"outputs":[{"name":"","type":"address","internalType":"contract IAuthorityFactory"}],"stateMutability":"view"}],"bytecode":{"object":"0x60c03461009f57601f61059a38819003918201601f19168301916001600160401b038311848410176100a357808492604094855283398101031261009f5780516001600160a01b0391828216820361009f5760200151918216820361009f5760805260a0526040516104e290816100b8823960805181818160dd015281816102070152610283015260a051818181605d0152818161015701526103030152f35b5f80fd5b634e487b7160e01b5f52604160045260245ffdfe60806040908082526004361015610014575f80fd5b5f3560e01c90816350567b3a146102365750806375689f83146101f3578063938f7adc146100905763e63d50ff1461004a575f80fd5b3461008c575f36600319011261008c57517f00000000000000000000000000000000000000000000000000000000000000006001600160a01b03168152602090f35b5f80fd5b503461008c5761009f366103bf565b8751631442f7bb60e01b81526001600160a01b03978816600482015260248101969096526044860181905292959094602094919390919085836064817f000000000000000000000000000000000000000000000000000000000000000089165afa80156101e95786948661014c9281965f916101cc575b5016988b519a8b968796634269667b60e01b88528c6004890152166024870152604486015260a0606486015260a485019161046d565b9060848301520381847f0000000000000000000000000000000000000000000000000000000000000000165afa9384156101c2575f94610193575b50845193168352820152f35b6101b4919450823d84116101bb575b6101ac8183610437565b81019061048d565b925f610187565b503d6101a2565b85513d5f823e3d90fd5b6101e39150883d8a116101bb576101ac8183610437565b5f610116565b89513d5f823e3d90fd5b503461008c575f36600319011261008c57517f00000000000000000000000000000000000000000000000000000000000000006001600160a01b03168152602090f35b90503461008c57610246366103bf565b631d9324cd60e31b88526001600160a01b03968716600489015260248801959095526044870185905294959294602094929392909185846064815f7f00000000000000000000000000000000000000000000000000000000000000008d165af19283156101e957889587955f95610376575b50916102f791879594938c519b8c978897630b30fbdf60e21b8952169b8c6004890152166024870152604486015260a0606486015260a485019161046d565b90608483015203815f857f0000000000000000000000000000000000000000000000000000000000000000165af19384156101c2575f9461033e5750845193168352820152f35b9093508181813d831161036f575b6103568183610437565b8101031261008c5751838116810361008c57925f610187565b503d61034c565b92958391949750809295503d83116103b8575b6103938183610437565b8101031261008c575193878516850361008c576102f7869489969491939092936102b8565b503d610389565b60c060031982011261008c576001600160a01b0390600435828116810361008c579260243592604435908116810361008c57916064359160843567ffffffffffffffff9283821161008c578060238301121561008c57816004013593841161008c576024848301011161008c57602401919060a43590565b90601f8019910116810190811067ffffffffffffffff82111761045957604052565b634e487b7160e01b5f52604160045260245ffd5b908060209392818452848401375f828201840152601f01601f1916010190565b9081602091031261008c57516001600160a01b038116810361008c579056fea264697066735822122005f1540903a795fc808a31a05506e002e9f6e362b20e179dfb4169ea8711171764736f6c63430008170033","linkReferences":{}},"methodIdentifiers":{"calculateAddresses(address,uint256,address,bytes32,bytes,bytes32)":"938f7adc","deployContracts(address,uint256,address,bytes32,bytes,bytes32)":"50567b3a","getApplicationFactory()":"e63d50ff","getAuthorityFactory()":"75689f83"},"id":42}