{"abi":[{"type":"constructor","inputs":[{"name":"inputBox","type":"address","internalType":"contract IInputBox"}],"stateMutability":"nonpayable"},{"type":"function","name":"depositSingleERC1155Token","inputs":[{"name":"token","type":"address","internalType":"contract IERC1155"},{"name":"appContract","type":"address","internalType":"address"},{"name":"tokenId","type":"uint256","internalType":"uint256"},{"name":"value","type":"uint256","internalType":"uint256"},{"name":"baseLayerData","type":"bytes","internalType":"bytes"},{"name":"execLayerData","type":"bytes","internalType":"bytes"}],"outputs":[],"stateMutability":"nonpayable"},{"type":"function","name":"getInputBox","inputs":[],"outputs":[{"name":"","type":"address","internalType":"contract IInputBox"}],"stateMutability":"view"}],"bytecode":{"object":"0x60a03461007157601f61043a38819003918201601f19168301916001600160401b038311848410176100755780849260209460405283398101031261007157516001600160a01b0381168103610071576080526040516103b0908161008a82396080518181816101f001526102a60152f35b5f80fd5b634e487b7160e01b5f52604160045260245ffdfe6080604081815260049081361015610015575f80fd5b5f925f3560e01c908162aace9a14610294575063dec07dca14610036575f80fd5b346102905760c03660031901126102905781356001600160a01b038181169391929184840361029057602435918083168093036102905767ffffffffffffffff92606435926044356084358681116102905761009590369084016102d5565b909660a435818111610290576100ae90369086016102d5565b9b9091813b15610290575f898b9389838f6100fd8c915198899687958694637921219560e11b8652339086015260248501528d6044850152606484015260a060848401528b60a4840191610339565b03925af1801561028657610256575b50509188918c94938351809160209e8f9c8d840195888752606085019061013292610339565b90601f199788858403019085015261014992610339565b0384810182526101599082610303565b8a519889938b8501809e6bffffffffffffffffffffffff199060601b1690523360601b6034860152604885015260688401525190816088840161019b92610359565b8101036068810187526088016101b19087610303565b875198899687958694631789cd6360e01b8652850152896024850152519081604485015281606485016101e392610359565b601f0116810103606401927f0000000000000000000000000000000000000000000000000000000000000000165af190811561024d5750610222578280f35b813d8311610246575b6102358183610303565b81010312610243575f808280f35b80fd5b503d61022b565b513d85823e3d90fd5b9080929594939d50116102735788525f9a9192909190888c61010c565b604183634e487b7160e01b5f525260245ffd5b8b513d5f823e3d90fd5b5f80fd5b34610290575f366003190112610290577f00000000000000000000000000000000000000000000000000000000000000006001600160a01b03168152602090f35b9181601f840112156102905782359167ffffffffffffffff8311610290576020838186019501011161029057565b90601f8019910116810190811067ffffffffffffffff82111761032557604052565b634e487b7160e01b5f52604160045260245ffd5b908060209392818452848401375f828201840152601f01601f1916010190565b5f5b83811061036a5750505f910152565b818101518382015260200161035b56fea26469706673582212207e35f0503f623400913000328c5f1e11c04827c2cc6c087d1e1155aee62d676864736f6c63430008170033","linkReferences":{}},"methodIdentifiers":{"depositSingleERC1155Token(address,address,uint256,uint256,bytes,bytes)":"dec07dca","getInputBox()":"00aace9a"},"id":51}