{"abi":[{"type":"constructor","inputs":[{"name":"inputBox","type":"address","internalType":"contract IInputBox"}],"stateMutability":"nonpayable"},{"type":"function","name":"getInputBox","inputs":[],"outputs":[{"name":"","type":"address","internalType":"contract IInputBox"}],"stateMutability":"view"}],"bytecode":{"object":"0x60a03461006857601f61011c38819003918201601f19168301916001600160401b0383118484101761006c5780849260209460405283398101031261006857516001600160a01b038116810361006857608052604051609b908161008182396080518160320152f35b5f80fd5b634e487b7160e01b5f52604160045260245ffdfe60808060405260043610156011575f80fd5b5f3560e01c62aace9a146022575f80fd5b346061575f3660031901126061577f00000000000000000000000000000000000000000000000000000000000000006001600160a01b03168152602090f35b5f80fdfea2646970667358221220e4051f8485e284e45b7f642704795fda84f622d611dcfd4e6ed1f60999a940cd64736f6c63430008170033","linkReferences":{}},"methodIdentifiers":{"getInputBox()":"00aace9a"},"id":61}