{"abi":[{"type":"constructor","inputs":[{"name":"inputBox","type":"address","internalType":"contract IInputBox"}],"stateMutability":"nonpayable"},{"type":"function","name":"depositBatchERC1155Token","inputs":[{"name":"token","type":"address","internalType":"contract IERC1155"},{"name":"appContract","type":"address","internalType":"address"},{"name":"tokenIds","type":"uint256[]","internalType":"uint256[]"},{"name":"values","type":"uint256[]","internalType":"uint256[]"},{"name":"baseLayerData","type":"bytes","internalType":"bytes"},{"name":"execLayerData","type":"bytes","internalType":"bytes"}],"outputs":[],"stateMutability":"nonpayable"},{"type":"function","name":"getInputBox","inputs":[],"outputs":[{"name":"","type":"address","internalType":"contract IInputBox"}],"stateMutability":"view"}],"bytecode":{"object":"0x60a03461007157601f61051338819003918201601f19168301916001600160401b038311848410176100755780849260209460405283398101031261007157516001600160a01b038116810361007157608052604051610489908161008a823960805181818161025c015261032a0152f35b5f80fd5b634e487b7160e01b5f52604160045260245ffdfe608080604052600480361015610013575f80fd5b5f915f3560e01c908162aace9a1461031857506324d15c6714610034575f80fd5b346103145760031960c0368201126103145781356001600160a01b0381169081900361031457602435916001600160a01b03831683036103145767ffffffffffffffff916044358381116103145761008f9036908701610359565b91606435858111610314576100a79036908901610359565b959094608435828111610314576100c19036908b0161038a565b909160a435848111610314576100da9036908d0161038a565b949095803b1561031457885f918d8f84908f8f986101418f9a610152936101316040519d8e9b8c9a8b99631759616b60e11b8b5233908b015260018060a01b031660248a015260a060448a015260a48901916103ee565b91848784030160648801526103ee565b908382030160848401528a8c610412565b03925af18015610309576102e0575b505060405196879560208701976080895260a0880190610180926103ee565b601f19998a888303016040890152610197926103ee565b90888683030160608701526101ab92610412565b90868483030160808501526101bf92610412565b0383810183526101cf90836103b8565b604051809160208201936bffffffffffffffffffffffff19883560601b1685523360601b60348401525190816048840161020892610432565b81010360288101825260480161021e90826103b8565b604051948594631789cd6360e01b8652600160a01b60019003169085015260248401604090525190816044850152816064850161025a92610432565b7f00000000000000000000000000000000000000000000000000000000000000006001600160a01b03169284926064601f93909301168101030181855a94602095f180156102d5576102aa575080f35b602090813d83116102ce575b6102c081836103b8565b810103126102cb5780f35b80fd5b503d6102b6565b6040513d84823e3d90fd5b9080929c50116102f6576040525f995f80610161565b60418a634e487b7160e01b5f525260245ffd5b6040513d5f823e3d90fd5b5f80fd5b34610314575f366003190112610314577f00000000000000000000000000000000000000000000000000000000000000006001600160a01b03168152602090f35b9181601f840112156103145782359167ffffffffffffffff8311610314576020808501948460051b01011161031457565b9181601f840112156103145782359167ffffffffffffffff8311610314576020838186019501011161031457565b90601f8019910116810190811067ffffffffffffffff8211176103da57604052565b634e487b7160e01b5f52604160045260245ffd5b81835290916001600160fb1b0383116103145760209260051b809284830137010190565b908060209392818452848401375f828201840152601f01601f1916010190565b5f5b8381106104435750505f910152565b818101518382015260200161043456fea26469706673582212209873e85650d3dbeecee8f8f3493773a2bd987f137623173955c7ee1246ef041164736f6c63430008170033","linkReferences":{}},"methodIdentifiers":{"depositBatchERC1155Token(address,address,uint256[],uint256[],bytes,bytes)":"24d15c67","getInputBox()":"00aace9a"},"id":50}