{"abi":[{"type":"function","name":"safeTransfer","inputs":[{"name":"token","type":"address","internalType":"contract IERC20"},{"name":"to","type":"address","internalType":"address"},{"name":"value","type":"uint256","internalType":"uint256"}],"outputs":[],"stateMutability":"nonpayable"},{"type":"error","name":"SafeERC20FailedOperation","inputs":[{"name":"token","type":"address","internalType":"address"}]}],"bytecode":{"object":"0x6080806040523461001657610121908161001b8239f35b5f80fdfe60806004361015600d575f80fd5b5f3560e01c63d1660f9914601f575f80fd5b3460e757606036600319011260e7576001600160a01b03600435818116929083810360e75760243592831680930360e757602082019263a9059cbb60e01b84526024830152604435604483015260448252608082019282841067ffffffffffffffff85111760d3575f809360209560405251925af11560c8575f513d60c05750803b155b60a857005b60249060405190635274afe760e01b82526004820152fd5b6001141560a3565b6040513d5f823e3d90fd5b634e487b7160e01b5f52604160045260245ffd5b5f80fdfea2646970667358221220e898df52a3bb3e6f35f764ff6347a484027a1c607c4fcac532bb75c4d0f5e56964736f6c63430008170033","linkReferences":{}},"methodIdentifiers":{"safeTransfer(address,address,uint256)":"d1660f99"},"id":43}