{"abi":[{"type":"function","name":"addInput","inputs":[{"name":"appContract","type":"address","internalType":"address"},{"name":"payload","type":"bytes","internalType":"bytes"}],"outputs":[{"name":"","type":"bytes32","internalType":"bytes32"}],"stateMutability":"nonpayable"},{"type":"function","name":"getDeploymentBlockNumber","inputs":[],"outputs":[{"name":"","type":"uint256","internalType":"uint256"}],"stateMutability":"view"},{"type":"function","name":"getInputHash","inputs":[{"name":"appContract","type":"address","internalType":"address"},{"name":"index","type":"uint256","internalType":"uint256"}],"outputs":[{"name":"","type":"bytes32","internalType":"bytes32"}],"stateMutability":"view"},{"type":"function","name":"getNumberOfInputs","inputs":[{"name":"appContract","type":"address","internalType":"address"}],"outputs":[{"name":"","type":"uint256","internalType":"uint256"}],"stateMutability":"view"},{"type":"event","name":"InputAdded","inputs":[{"name":"appContract","type":"address","indexed":true,"internalType":"address"},{"name":"index","type":"uint256","indexed":true,"internalType":"uint256"},{"name":"input","type":"bytes","indexed":false,"internalType":"bytes"}],"anonymous":false},{"type":"error","name":"InputTooLarge","inputs":[{"name":"appContract","type":"address","internalType":"address"},{"name":"inputLength","type":"uint256","internalType":"uint256"},{"name":"maxInputLength","type":"uint256","internalType":"uint256"}]}],"bytecode":{"object":"0x60a080604052346100225743608052610368908161002782396080518160600152f35b5f80fdfe60806040908082526004361015610014575f80fd5b5f3560e01c9081631789cd63146101035750806361a93c87146100cd578063677087c9146100875763b3a1acd81461004a575f80fd5b34610083575f36600319011261008357602090517f00000000000000000000000000000000000000000000000000000000000000008152f35b5f80fd5b50346100835780600319360112610083576020906001600160a01b036100ab6102f3565b165f525f82526100bf602435825f20610309565b91905490519160031b1c8152f35b5034610083576020366003190112610083576020906001600160a01b036100f26102f3565b165f525f8252805f20549051908152f35b823461008357806003193601126100835761011c6102f3565b9060249182359367ffffffffffffffff90818611610083573660238701121561008357856004013592828411610083573686858901011161008357601f9060018060a01b031692835f526020975f8952865f20918254966101638a5f8d89019563415bf36360e01b8752846101249346818d01528c60448d01523360648d01524360848d01524260a48d01524460c48d01528d60e48d01526101006101048d015281858d01526101449201828c0137848a01015287871980988195011681010390810188520116850190858210908211176102e057808852845162200000908181116102c0575050508351902096680100000000000000008610156102ad57508461022c91600182018155610309565b81549060031b9088821b915f19901b191617905584805191888352835193848a850152895f5b868110610297575050508290601f855f857fc05d337121a6e8605c6ec0b72aa29c4210ffe6e5b9cefdd6a7058188a8f66f98988601015201168101030190a351908152f35b8083018201518187018b01528994508101610252565b634e487b7160e01b5f9081526041600452fd5b6304f90dc560e51b835260048301889052828b0152604482015260649150fd5b88634e487b7160e01b5f5260416004525ffd5b600435906001600160a01b038216820361008357565b805482101561031e575f5260205f2001905f90565b634e487b7160e01b5f52603260045260245ffdfea2646970667358221220b5d2a9cc1bcb8a1bf52c6e3925731798712738d026d640358f14166d225568f564736f6c63430008170033","linkReferences":{}},"methodIdentifiers":{"addInput(address,bytes)":"1789cd63","getDeploymentBlockNumber()":"b3a1acd8","getInputHash(address,uint256)":"677087c9","getNumberOfInputs(address)":"61a93c87"},"id":45}