{"abi":[{"type":"constructor","inputs":[{"name":"inputBox","type":"address","internalType":"contract IInputBox"}],"stateMutability":"nonpayable"},{"type":"function","name":"depositERC20Tokens","inputs":[{"name":"token","type":"address","internalType":"contract IERC20"},{"name":"appContract","type":"address","internalType":"address"},{"name":"value","type":"uint256","internalType":"uint256"},{"name":"execLayerData","type":"bytes","internalType":"bytes"}],"outputs":[],"stateMutability":"nonpayable"},{"type":"function","name":"getInputBox","inputs":[],"outputs":[{"name":"","type":"address","internalType":"contract IInputBox"}],"stateMutability":"view"},{"type":"error","name":"ERC20TransferFailed","inputs":[]}],"bytecode":{"object":"0x60a03461007157601f61038438819003918201601f19168301916001600160401b038311848410176100755780849260209460405283398101031261007157516001600160a01b0381168103610071576080526040516102fa908161008a8239608051818181610185015261025f0152f35b5f80fd5b634e487b7160e01b5f52604160045260245ffdfe608060409080825260049081361015610016575f80fd5b5f3560e01c908162aace9a1461024d57506395854b8114610035575f80fd5b346101d25760803660031901126101d25780356001600160a01b0381811693918481036101d2576024358281168091036101d2576044359060649260643567ffffffffffffffff908181116101d257366023820112156101d257808901359182116101d25736602483830101116101d2575f998851906323b872dd60e01b8252338b8301528560248301528660448301528160648160209e8f945af1908115610243575f9161020d575b50156101fd57899694928261013b9360246068948c9d9a989d519788956bffffffffffffffffffffffff199060601b168d8701523360601b60348701526048860152018484013781015f8382015203604881018452018261028e565b8551968794631789cd6360e01b8652850152856024850152805191826044860152855f5b8481106101e657505050505f606484838383839684010152601f801991011681010301927f0000000000000000000000000000000000000000000000000000000000000000165af19081156101dd57506101b557005b813d83116101d6575b6101c8818361028e565b810103126101d257005b5f80fd5b503d6101be565b513d5f823e3d90fd5b8381018201518a820184015289965087910161015f565b8751633c9fd93960e21b81528990fd5b90508a81813d831161023c575b610224818361028e565b810103126101d2575180151581036101d2575f6100df565b503d61021a565b89513d5f823e3d90fd5b346101d2575f3660031901126101d2577f00000000000000000000000000000000000000000000000000000000000000006001600160a01b03168152602090f35b90601f8019910116810190811067ffffffffffffffff8211176102b057604052565b634e487b7160e01b5f52604160045260245ffdfea26469706673582212202c9b26c0b289b2f09e89f2095204ed7f4d5f5a5ba4e626a365e6e93b42099e0164736f6c63430008170033","linkReferences":{}},"methodIdentifiers":{"depositERC20Tokens(address,address,uint256,bytes)":"95854b81","getInputBox()":"00aace9a"},"id":52}