{"abi":[{"type":"function","name":"calculateApplicationAddress","inputs":[{"name":"outputsMerkleRootValidator","type":"address","internalType":"contract IOutputsMerkleRootValidator"},{"name":"appOwner","type":"address","internalType":"address"},{"name":"templateHash","type":"bytes32","internalType":"bytes32"},{"name":"dataAvailability","type":"bytes","internalType":"bytes"},{"name":"salt","type":"bytes32","internalType":"bytes32"}],"outputs":[{"name":"","type":"address","internalType":"address"}],"stateMutability":"view"},{"type":"function","name":"newApplication","inputs":[{"name":"outputsMerkleRootValidator","type":"address","internalType":"contract IOutputsMerkleRootValidator"},{"name":"appOwner","type":"address","internalType":"address"},{"name":"templateHash","type":"bytes32","internalType":"bytes32"},{"name":"dataAvailability","type":"bytes","internalType":"bytes"},{"name":"salt","type":"bytes32","internalType":"bytes32"}],"outputs":[{"name":"","type":"address","internalType":"contract IApplication"}],"stateMutability":"nonpayable"},{"type":"function","name":"newApplication","inputs":[{"name":"outputsMerkleRootValidator","type":"address","internalType":"contract IOutputsMerkleRootValidator"},{"name":"appOwner","type":"address","internalType":"address"},{"name":"templateHash","type":"bytes32","internalType":"bytes32"},{"name":"dataAvailability","type":"bytes","internalType":"bytes"}],"outputs":[{"name":"","type":"address","internalType":"contract IApplication"}],"stateMutability":"nonpayable"},{"type":"event","name":"ApplicationCreated","inputs":[{"name":"outputsMerkleRootValidator","type":"address","indexed":true,"internalType":"contract IOutputsMerkleRootValidator"},{"name":"appOwner","type":"address","indexed":false,"internalType":"address"},{"name":"templateHash","type":"bytes32","indexed":false,"internalType":"bytes32"},{"name":"dataAvailability","type":"bytes","indexed":false,"internalType":"bytes"},{"name":"appContract","type":"address","indexed":false,"internalType":"contract IApplication"}],"anonymous":false}],"bytecode":{"object":"0x6080806040523461001657611598908161001b8239f35b5f80fdfe60806040908082526004361015610014575f80fd5b5f3560e01c9081632cc3ef7c146101ea575080634269667b1461013557638d02370d1461003f575f80fd5b3461013157608036600319011261013157600435906001600160a01b0390818316808403610131576024358381168103610131576044359467ffffffffffffffff9460643586811161013157610099903690600401610287565b96909286519161117d808401918483109083111761011d57858b8886956100c6958e956103e68939610330565b03905ff0801561011357602097927fd291ffe9436f2c57d5ce3e87ed33576f801053946651a2fb4fec5a406cf68cc5949261010a9216978891885195869586610364565b0390a251908152f35b85513d5f823e3d90fd5b634e487b7160e01b5f52604160045260245ffd5b5f80fd5b5034610131576101be90600b6101b2610186610150366102b5565b969492999391959061117d9660209b8c948c51996101708782018c61039a565b808b526103e6878c01398c519687968701610330565b039061019a601f199283810183528261039a565b87519384916101ac8b840180986103bc565b906103bc565b0390810183528261039a565b5190209083519184830152848201523081520160ff81536055902090516001600160a01b039091168152f35b905034610131576101fa366102b5565b90969492919561117d80820182811067ffffffffffffffff82111761011d57898986898961022e9588976103e68939610330565b03905ff595861561027d579161010a602097927fd291ffe9436f2c57d5ce3e87ed33576f801053946651a2fb4fec5a406cf68cc59460018060a01b038095169889928951968796169886610364565b84513d5f823e3d90fd5b9181601f840112156101315782359167ffffffffffffffff8311610131576020838186019501011161013157565b9060a0600319830112610131576001600160a01b03916004358381168103610131579260243590811681036101315791604435916064359067ffffffffffffffff82116101315761030891600401610287565b909160843590565b908060209392818452848401375f828201840152601f01601f1916010190565b6001600160a01b03918216815291166020820152604081019190915260806060820181905261036193910191610310565b90565b9392606093610393929397969760018060a01b0380951687526020870152608060408701526080860191610310565b9416910152565b90601f8019910116810190811067ffffffffffffffff82111761011d57604052565b908151915f5b8381106103d2575050015f815290565b80602080928401015181850152016103c256fe60c060405234620002b7576200117d803803806200001d81620002bb565b928339810190608081830312620002b75780516001600160a01b03919082811690819003620002b7576020938483015190848216809203620002b757604084015160608501516001600160401b0395919491868211620002b7570195601f93838589011215620002b7578751978789116200027757601f1998620000a78782018b168c01620002bb565b958187528b8284010111620002b7578a915f5b828110620002a3575050905f918601015280156200028b575f80546001600160a01b0319808216841783559316907f8be0079c531659141344cd1fd0a4f28419497f9722a3daafe3b4186f6b6457e09080a36001948580554360805260a05260035416176003558051938411620002775760049586548481811c911680156200026c575b82821014620002595783811162000211575b5080928511600114620001ac5750839450908392915f94620001a0575b50501b915f199060031b1c19161790555b604051610e9b9081620002e2823960805181610659015260a051816105390152f35b015192505f806200016d565b929484908116875f52845f20945f905b88838310620001f65750505010620001dd575b505050811b0190556200017e565b01515f1960f88460031b161c191690555f8080620001cf565b858701518855909601959485019487935090810190620001bc565b875f52815f208480880160051c8201928489106200024f575b0160051c019085905b8281106200024357505062000150565b5f815501859062000233565b925081926200022a565b602288634e487b7160e01b5f525260245ffd5b90607f16906200013e565b634e487b7160e01b5f52604160045260245ffd5b604051631e4fbdf760e01b81525f6004820152602490fd5b8181018401518882018501528301620000ba565b5f80fd5b6040519190601f01601f191682016001600160401b03811183821017620002775760405256fe6080604052600436101561001a575b3615610018575f80fd5b005b5f3560e01c806301ffc9a71461011957806308eb89ab14610114578063150b7a021461010f57806333137b761461010a57806361b12c6614610105578063715018a61461010057806371891db0146100fb5780638da5cb5b146100f6578063a94dfc5a146100f1578063b3a1acd8146100ec578063bc197c81146100e7578063bf8abff8146100e2578063e88d39c0146100dd578063f02478de146100d8578063f23a6e61146100d35763f2fde38b0361000e5761099a565b610941565b610840565b6107e2565b610772565b6106e2565b610642565b61061a565b6105f3565b6105b3565b61055c565b610522565b61032d565b610276565b610181565b3461016f57602036600319011261016f5760043563ffffffff60e01b811680910361016f57602090630271189760e51b811490811561015e575b506040519015158152f35b6301ffc9a760e01b1490505f610153565b5f80fd5b9081604091031261016f5790565b3461016f57604036600319011261016f576024356001600160401b03811161016f576101b4610018913690600401610173565b600435610a28565b6001600160a01b0381160361016f57565b634e487b7160e01b5f52604160045260245ffd5b90601f801991011681019081106001600160401b0382111761020257604052565b6101cd565b6001600160401b03811161020257601f01601f191660200190565b92919261022e82610207565b9161023c60405193846101e1565b82948184528183011161016f578281602093845f960137010152565b9080601f8301121561016f5781602061027393359101610222565b90565b3461016f57608036600319011261016f576102926004356101bc565b61029d6024356101bc565b6064356001600160401b03811161016f576102bc903690600401610258565b50604051630a85bd0160e11b8152602090f35b604060031982011261016f57600435916001600160401b0380841161016f578260238501121561016f5783600401359381851161016f57836024868301011161016f57602401939260243591821161016f5761027391600401610173565b3461016f5761033b366102cf565b6002600193929354146105105761036190600260015561035c818585610bc1565b610b05565b600483106104f35761037c6103768484610b4a565b90610b75565b610387848085610b58565b916001600160e01b03191663237a816f60e01b810361046457506103cb6001600160401b03841660ff6001918060081c5f526002602052161b60405f205416151590565b61044057936103fe610434927fcad1f361c6e84664e892230291c8e8eb9555683e0a6a5ce8ea7b204ac0ac367696610d00565b6104286001600160401b0384168060081c5f526002602052600160ff60405f2092161b8154179055565b60405193849384610ba1565b0390a161001860018055565b5050604051637b97a6bb60e01b8152928392610460925060048401610b39565b0390fd5b6310321e8b60e01b036104d35761049b6001600160401b03841660ff6001918060081c5f526002602052161b60405f205416151590565b61044057936104ce610434927fcad1f361c6e84664e892230291c8e8eb9555683e0a6a5ce8ea7b204ac0ac367696610c9b565b6103fe565b5050604051636942600f60e11b8152928392610460925060048401610b39565b50610460604051928392636942600f60e11b845260048401610b39565b604051633ee5aeb560e01b8152600490fd5b3461016f575f36600319011261016f5760206040517f00000000000000000000000000000000000000000000000000000000000000008152f35b3461016f575f36600319011261016f57610574610d78565b5f80546001600160a01b0319811682556001600160a01b03167f8be0079c531659141344cd1fd0a4f28419497f9722a3daafe3b4186f6b6457e08280a3005b3461016f57602036600319011261016f5760206105e960043560ff6001918060081c5f526002602052161b60405f205416151590565b6040519015158152f35b3461016f575f36600319011261016f575f546040516001600160a01b039091168152602090f35b3461016f575f36600319011261016f576003546040516001600160a01b039091168152602090f35b3461016f575f36600319011261016f5760206040517f00000000000000000000000000000000000000000000000000000000000000008152f35b81601f8201121561016f578035916020916001600160401b038411610202578360051b90604051946106b0858401876101e1565b8552838086019282010192831161016f578301905b8282106106d3575050505090565b813581529083019083016106c5565b3461016f5760a036600319011261016f576106fe6004356101bc565b6107096024356101bc565b6001600160401b0360443581811161016f5761072990369060040161067c565b5060643581811161016f5761074290369060040161067c565b5060843590811161016f5761075b903690600401610258565b5060405163bc197c8160e01b8152602090f35b0390f35b3461016f57602036600319011261016f577f6ad3188ba8f430fba0656cb0a7e839ab2020d5586ba11a1477d18f7092f8bece60206004356107b2816101bc565b6107ba610d78565b600380546001600160a01b0319166001600160a01b03929092169182179055604051908152a1005b3461016f576100186107f3366102cf565b91610bc1565b602080825282518183018190529093925f5b82811061082c57505060409293505f838284010152601f8019910116010190565b81810186015184820160400152850161080b565b3461016f575f36600319011261016f576040515f60045460018160011c9160018116918215610937575b60209160208510841461092357848752602087019390811561090457506001146108ab575b61076e8661089f818803826101e1565b604051918291826107f9565b60045f90815294509192917f8a35acfbc15ff81a39ae7d344fd709f28e8600b4aa8c65c6b64bfe7fe36bd19b5b8386106108f3575050509101905061089f8261076e5f61088f565b8054858701529482019481016108d8565b60ff1916845250505090151560051b01905061089f8261076e5f61088f565b634e487b7160e01b5f52602260045260245ffd5b92607f169261086a565b3461016f5760a036600319011261016f5761095d6004356101bc565b6109686024356101bc565b6084356001600160401b03811161016f57610987903690600401610258565b5060405163f23a6e6160e01b8152602090f35b3461016f57602036600319011261016f576004356109b7816101bc565b6109bf610d78565b6001600160a01b03908116908115610a10575f54826bffffffffffffffffffffffff60a01b8216175f55167f8be0079c531659141344cd1fd0a4f28419497f9722a3daafe3b4186f6b6457e05f80a3005b604051631e4fbdf760e01b81525f6004820152602490fd5b9060208101603f610a398284610bdf565b905003610af3576001600160401b03610a55610a5d9284610bdf565b929093610b05565b16905f925b818410610aa7575050610a76915015610da3565b610a86610a8282610c14565b1590565b610a8d5750565b6040516344a192ff60e01b81526004810191909152602490fd5b90916001908460051b8301358296878316155f14610add5790610ad0915f5260205260405f2090565b955b1c9301929190610a62565b610aed915f5260205260405f2090565b95610ad2565b604051635d2c5e9b60e11b8152600490fd5b356001600160401b038116810361016f5790565b908060209392818452848401375f828201840152601f01601f1916010190565b916020610273938181520191610b19565b9060041161016f5790600490565b909291928360041161016f57831161016f57600401916003190190565b6001600160e01b03199035818116939260048110610b9257505050565b60040360031b82901b16169150565b6040906001600160401b0361027395931681528160208201520191610b19565b610bd190610bdd93923691610222565b60208151910120610a28565b565b903590601e198136030182121561016f57018035906001600160401b03821161016f57602001918160051b3603831361016f57565b600354604051633973219960e21b81523060048201526024810192909252602090829060449082906001600160a01b03165afa908115610c90575f91610c58575090565b90506020813d602011610c88575b81610c73602093836101e1565b8101031261016f5751801515810361016f5790565b3d9150610c66565b6040513d5f823e3d90fd5b9081019060408183031261016f578035610cb4816101bc565b6020820135916001600160401b03831161016f575f938493610cd69201610258565b8051916020909101906001600160a01b03165af4610cf2610dee565b9015610cfb5750565b610e54565b90810160608282031261016f578135610d18816101bc565b6020830135926040810135906001600160401b03821161016f57610d51938592610d429201610258565b916001600160a01b0316610e1d565b9015610d5b575050565b604492506040519162fae2d560e21b835260048301526024820152fd5b5f546001600160a01b03163303610d8b57565b60405163118cdaa760e01b8152336004820152602490fd5b15610daa57565b606460405162461bcd60e51b815260206004820152602060248201527f4c69624d65726b6c6533323a20696e646578206f7574206f6620626f756e64736044820152fd5b3d15610e18573d90610dff82610207565b91610e0d60405193846101e1565b82523d5f602084013e565b606090565b909291924793848211610e4c575f928392602083519301915af1610e3f610dee565b9015610cfb575060019190565b5050505f9190565b80519081610e60575f80fd5b602001fdfea2646970667358221220590880271bebcaf0be70a402f9965efbcd43d5f3bfb42098da7c8be54b1af67664736f6c63430008170033a2646970667358221220ae6f4a0ac8447d867d0b544e4687d397015d08d53f9da925f964ec53f760b3e964736f6c63430008170033","linkReferences":{}},"methodIdentifiers":{"calculateApplicationAddress(address,address,bytes32,bytes,bytes32)":"4269667b","newApplication(address,address,bytes32,bytes)":"8d02370d","newApplication(address,address,bytes32,bytes,bytes32)":"2cc3ef7c"},"id":38}