{"abi":[{"type":"constructor","inputs":[{"name":"initialOwner","type":"address","internalType":"address"},{"name":"epochLength","type":"uint256","internalType":"uint256"}],"stateMutability":"nonpayable"},{"type":"function","name":"getEpochLength","inputs":[],"outputs":[{"name":"","type":"uint256","internalType":"uint256"}],"stateMutability":"view"},{"type":"function","name":"isOutputsMerkleRootValid","inputs":[{"name":"appContract","type":"address","internalType":"address"},{"name":"outputsMerkleRoot","type":"bytes32","internalType":"bytes32"}],"outputs":[{"name":"","type":"bool","internalType":"bool"}],"stateMutability":"view"},{"type":"function","name":"owner","inputs":[],"outputs":[{"name":"","type":"address","internalType":"address"}],"stateMutability":"view"},{"type":"function","name":"renounceOwnership","inputs":[],"outputs":[],"stateMutability":"nonpayable"},{"type":"function","name":"submitClaim","inputs":[{"name":"appContract","type":"address","internalType":"address"},{"name":"lastProcessedBlockNumber","type":"uint256","internalType":"uint256"},{"name":"outputsMerkleRoot","type":"bytes32","internalType":"bytes32"}],"outputs":[],"stateMutability":"nonpayable"},{"type":"function","name":"supportsInterface","inputs":[{"name":"interfaceId","type":"bytes4","internalType":"bytes4"}],"outputs":[{"name":"","type":"bool","internalType":"bool"}],"stateMutability":"view"},{"type":"function","name":"transferOwnership","inputs":[{"name":"newOwner","type":"address","internalType":"address"}],"outputs":[],"stateMutability":"nonpayable"},{"type":"event","name":"ClaimAccepted","inputs":[{"name":"appContract","type":"address","indexed":true,"internalType":"address"},{"name":"lastProcessedBlockNumber","type":"uint256","indexed":false,"internalType":"uint256"},{"name":"outputsMerkleRoot","type":"bytes32","indexed":false,"internalType":"bytes32"}],"anonymous":false},{"type":"event","name":"ClaimSubmitted","inputs":[{"name":"submitter","type":"address","indexed":true,"internalType":"address"},{"name":"appContract","type":"address","indexed":true,"internalType":"address"},{"name":"lastProcessedBlockNumber","type":"uint256","indexed":false,"internalType":"uint256"},{"name":"outputsMerkleRoot","type":"bytes32","indexed":false,"internalType":"bytes32"}],"anonymous":false},{"type":"event","name":"OwnershipTransferred","inputs":[{"name":"previousOwner","type":"address","indexed":true,"internalType":"address"},{"name":"newOwner","type":"address","indexed":true,"internalType":"address"}],"anonymous":false},{"type":"error","name":"OwnableInvalidOwner","inputs":[{"name":"owner","type":"address","internalType":"address"}]},{"type":"error","name":"OwnableUnauthorizedAccount","inputs":[{"name":"account","type":"address","internalType":"address"}]}],"bytecode":{"object":"0x60a03461011557601f6104b638819003918201601f19168301916001600160401b038311848410176101195780849260409485528339810103126101155780516001600160a01b039182821691829003610115576020015180156100d05760805280156100b857600180546001600160a01b03198116831790915560405192167f8be0079c531659141344cd1fd0a4f28419497f9722a3daafe3b4186f6b6457e05f80a3610388908161012e8239608051816101550152f35b604051631e4fbdf760e01b81525f6004820152602490fd5b60405162461bcd60e51b815260206004820152601d60248201527f65706f6368206c656e677468206d757374206e6f74206265207a65726f0000006044820152606490fd5b5f80fd5b634e487b7160e01b5f52604160045260245ffdfe60806040908082526004361015610014575f80fd5b5f3560e01c90816301ffc9a7146102ab575080636470af00146101fb578063715018a6146101a05780638da5cb5b14610178578063cfe8a73b1461013e578063e5cc8664146100fa5763f2fde38b1461006b575f80fd5b346100f65760203660031901126100f657610084610310565b61008c610326565b6001600160a01b039081169182156100e05750600154826bffffffffffffffffffffffff60a01b821617600155167f8be0079c531659141344cd1fd0a4f28419497f9722a3daafe3b4186f6b6457e05f80a3005b51631e4fbdf760e01b81525f6004820152602490fd5b5f80fd5b50346100f657806003193601126100f6576020906001600160a01b0361011e610310565b165f525f8252805f206024355f52825260ff815f20541690519015158152f35b50346100f6575f3660031901126100f657602090517f00000000000000000000000000000000000000000000000000000000000000008152f35b50346100f6575f3660031901126100f65760015490516001600160a01b039091168152602090f35b346100f6575f3660031901126100f6576101b8610326565b600180546001600160a01b031981169091555f906001600160a01b03167f8be0079c531659141344cd1fd0a4f28419497f9722a3daafe3b4186f6b6457e08280a3005b50346100f65760603660031901126100f6577f0f2cd00a405c0d1a66050307b6722c4788db6ed57aa3589a5c38da535cc3ce63610236610310565b9160243560443593610246610326565b60018060a01b0316938483518381528260208201527ff4ff953641f10e17dd93c0bc51334cb1f711fdcb4e37992021a5973f7a958f09853392a3845f525f602052825f20815f52602052825f20600160ff1982541617905582519182526020820152a2005b346100f65760203660031901126100f6576004359063ffffffff60e01b82168092036100f65781602092159081156102e5575b5015158152f35b63ab98083b60e01b8114915081156102ff575b50836102de565b6301ffc9a760e01b149050836102f8565b600435906001600160a01b03821682036100f657565b6001546001600160a01b0316330361033a57565b60405163118cdaa760e01b8152336004820152602490fdfea26469706673582212200beb18faede842ce557fa6a38a83bc4f3079260eadd99e093d058585a072d8ee64736f6c63430008170033","linkReferences":{}},"methodIdentifiers":{"getEpochLength()":"cfe8a73b","isOutputsMerkleRootValid(address,bytes32)":"e5cc8664","owner()":"8da5cb5b","renounceOwnership()":"715018a6","submitClaim(address,uint256,bytes32)":"6470af00","supportsInterface(bytes4)":"01ffc9a7","transferOwnership(address)":"f2fde38b"},"id":29}