{"abi":[{"type":"function","name":"calculateQuorumAddress","inputs":[{"name":"validators","type":"address[]","internalType":"address[]"},{"name":"epochLength","type":"uint256","internalType":"uint256"},{"name":"salt","type":"bytes32","internalType":"bytes32"}],"outputs":[{"name":"","type":"address","internalType":"address"}],"stateMutability":"view"},{"type":"function","name":"newQuorum","inputs":[{"name":"validators","type":"address[]","internalType":"address[]"},{"name":"epochLength","type":"uint256","internalType":"uint256"},{"name":"salt","type":"bytes32","internalType":"bytes32"}],"outputs":[{"name":"","type":"address","internalType":"contract IQuorum"}],"stateMutability":"nonpayable"},{"type":"function","name":"newQuorum","inputs":[{"name":"validators","type":"address[]","internalType":"address[]"},{"name":"epochLength","type":"uint256","internalType":"uint256"}],"outputs":[{"name":"","type":"address","internalType":"contract IQuorum"}],"stateMutability":"nonpayable"},{"type":"event","name":"QuorumCreated","inputs":[{"name":"quorum","type":"address","indexed":false,"internalType":"contract IQuorum"}],"anonymous":false}],"bytecode":{"object":"0x6080806040523461001657610a58908161001b8239f35b5f80fdfe60806040908082526004361015610014575f80fd5b5f3560e01c9081632f74f862146101b157508063ca8f271c146101005763d4af3bc81461003f575f80fd5b346100fc57806003193601126100fc5767ffffffffffffffff6004358181116100fc57610070903690600401610235565b8351926106e891828501918211858310176100e85784936100999361033b86396024359261029d565b03905ff080156100de579060209160018060a01b0316907f446698b70271bce331e53210572bd37ac8c590b6cdca2e6763e6448243cba802838251848152a151908152f35b50513d5f823e3d90fd5b634e487b7160e01b5f52604160045260245ffd5b5f80fd5b50346100fc5761018590600b61017961011836610266565b93919690966106e89361014d6020998951966101368c8201896102ef565b80885261033b8c89013989519384938c850161029d565b0390610161601f19928381018352826102ef565b87519384916101738b84018098610311565b90610311565b039081018352826102ef565b5190209083519184830152848201523081520160ff81536055902090516001600160a01b039091168152f35b9050346100fc576101c136610266565b939291906106e8918285019385851067ffffffffffffffff8611176100e85785946101f09461033b873961029d565b03905ff580156100de579060209160018060a01b0316907f446698b70271bce331e53210572bd37ac8c590b6cdca2e6763e6448243cba802838251848152a151908152f35b9181601f840112156100fc5782359167ffffffffffffffff83116100fc576020808501948460051b0101116100fc57565b60606003198201126100fc576004359067ffffffffffffffff82116100fc5761029191600401610235565b90916024359060443590565b6040808252810183905293929160608501905f905b8082106102c457505060209150930152565b909183356001600160a01b03811691908290036100fc579081526020938401930191600101906102b2565b90601f8019910116810190811067ffffffffffffffff8211176100e857604052565b908151915f5b838110610327575050015f815290565b806020809284010151818501520161031756fe604060c08152346101b0576106e88038038061001a816101c8565b928339810182828203126101b05781516001600160401b0393908481116101b057830182601f820112156101b05780519360209585116101b4576005938560051b87806100688184016101c8565b8099815201918501019182116101b05790878094015b81811061018a5750505001518015610146576080525f915f5b845181101561011c5760018060a01b038682841b8701015116805f52600190818852845f2054156100cd575b5050600101610097565b909491905f19831461010857856001930195815f52885285855f2055855f5260028852845f2090838060a01b0319825416179055905f6100c3565b634e487b7160e01b5f52601160045260245ffd5b828460a052516104fa90816101ee82396080518160e1015260a05181818161021c015261038f0152f35b815162461bcd60e51b815260048101869052601d60248201527f65706f6368206c656e677468206d757374206e6f74206265207a65726f0000006044820152606490fd5b8051945090916001600160a01b03851685036101b057938452879384019190840161007e565b5f80fd5b634e487b7160e01b5f52604160045260245ffd5b6040519190601f01601f191682016001600160401b038111838210176101b45760405256fe6080604090808252600480361015610015575f80fd5b5f3560e01c91826301ffc9a714610418575081630a6f1fe8146103e15781631c45396a146103b25781631e526e45146103785781634b84231c146102ff5781636470af001461014c575080637051bfd514610104578063cfe8a73b146100ca5763e5cc866414610083575f80fd5b346100c657806003193601126100c6576020906001600160a01b036100a6610484565b165f525f8252805f206024355f52825260ff815f20541690519015158152f35b5f80fd5b50346100c6575f3660031901126100c657602090517f00000000000000000000000000000000000000000000000000000000000000008152f35b50346100c6576020906101446101193661049a565b9160018060a01b03165f52600360205260405f20905f5260205260405f20905f5260205260405f2090565b549051908152f35b9050346100c65761015c3661049a565b939193335f52600193602090858252845f20549687156102bd5760018060a01b03169687865186815285858201527ff4ff953641f10e17dd93c0bc51334cb1f711fdcb4e37992021a5973f7a958f09883392a3875f5260038352855f20855f528352855f20845f528352855f20908782016101ee828260019160ff918160081c5f52602052161b60405f205416151590565b156101f557005b8160081c5f5284528760ff885f2092161b815417905580545f1981146102aa5787018091557f0000000000000000000000000000000000000000000000000000000000000000871c87019182881161029757501461024f57005b7f0f2cd00a405c0d1a66050307b6722c4788db6ed57aa3589a5c38da535cc3ce6394865f525f8252845f20835f528252845f209060ff198254161790558351928352820152a2005b601190634e487b7160e01b5f525260245ffd5b601183634e487b7160e01b5f525260245ffd5b5060649185519162461bcd60e51b8352820152601f60248201527f51756f72756d3a2063616c6c6572206973206e6f742076616c696461746f72006044820152fd5b82346100c65760803660031901126100c65760209061036f61031f610484565b6001600160a01b03165f90815260036020908152604080832060243584528252808320604435845290915290206064359060010160019160ff918160081c5f52602052161b60405f205416151590565b90519015158152f35b82346100c6575f3660031901126100c657602090517f00000000000000000000000000000000000000000000000000000000000000008152f35b82346100c65760203660031901126100c657602091355f526002825260018060a01b03815f2054169051908152f35b82346100c65760203660031901126100c6576020906001600160a01b03610406610484565b165f5260018252805f20549051908152f35b90346100c65760203660031901126100c657359063ffffffff60e01b82168092036100c6576020916319d6ea0760e11b8114908115610459575b5015158152f35b63ab98083b60e01b811491508115610473575b5083610452565b6301ffc9a760e01b1490508361046c565b600435906001600160a01b03821682036100c657565b60609060031901126100c6576004356001600160a01b03811681036100c65790602435906044359056fea26469706673582212206a12e17c1fb1e465c6044849e348692ed74a92048d2a089baa2f73e567b571b064736f6c63430008170033a2646970667358221220610655d521764b324fbf6d8077a7d76f4922398db500444fd9836c6ed8c3895964736f6c63430008170033","linkReferences":{}},"methodIdentifiers":{"calculateQuorumAddress(address[],uint256,bytes32)":"ca8f271c","newQuorum(address[],uint256)":"d4af3bc8","newQuorum(address[],uint256,bytes32)":"2f74f862"},"id":36}